{
  "_format": "hh-sol-artifact-1",
  "contractName": "PaymentGatewayV1",
  "sourceName": "src/PaymentGatewayV1.sol",
  "abi": [
    {
      "inputs": [
        {
          "internalType": "address",
          "name": "trustedForwarderAddress",
          "type": "address"
        }
      ],
      "stateMutability": "nonpayable",
      "type": "constructor"
    },
    {
      "inputs": [
        {
          "internalType": "address",
          "name": "target",
          "type": "address"
        }
      ],
      "name": "AddressEmptyCode",
      "type": "error"
    },
    {
      "inputs": [],
      "name": "ECDSAInvalidSignature",
      "type": "error"
    },
    {
      "inputs": [
        {
          "internalType": "uint256",
          "name": "length",
          "type": "uint256"
        }
      ],
      "name": "ECDSAInvalidSignatureLength",
      "type": "error"
    },
    {
      "inputs": [
        {
          "internalType": "bytes32",
          "name": "s",
          "type": "bytes32"
        }
      ],
      "name": "ECDSAInvalidSignatureS",
      "type": "error"
    },
    {
      "inputs": [
        {
          "internalType": "address",
          "name": "implementation",
          "type": "address"
        }
      ],
      "name": "ERC1967InvalidImplementation",
      "type": "error"
    },
    {
      "inputs": [],
      "name": "ERC1967NonPayable",
      "type": "error"
    },
    {
      "inputs": [],
      "name": "FailedCall",
      "type": "error"
    },
    {
      "inputs": [],
      "name": "InvalidInitialization",
      "type": "error"
    },
    {
      "inputs": [],
      "name": "NotInitializing",
      "type": "error"
    },
    {
      "inputs": [
        {
          "internalType": "address",
          "name": "owner",
          "type": "address"
        }
      ],
      "name": "OwnableInvalidOwner",
      "type": "error"
    },
    {
      "inputs": [
        {
          "internalType": "address",
          "name": "account",
          "type": "address"
        }
      ],
      "name": "OwnableUnauthorizedAccount",
      "type": "error"
    },
    {
      "inputs": [],
      "name": "ReentrancyGuardReentrantCall",
      "type": "error"
    },
    {
      "inputs": [
        {
          "internalType": "address",
          "name": "token",
          "type": "address"
        }
      ],
      "name": "SafeERC20FailedOperation",
      "type": "error"
    },
    {
      "inputs": [],
      "name": "UUPSUnauthorizedCallContext",
      "type": "error"
    },
    {
      "inputs": [
        {
          "internalType": "bytes32",
          "name": "slot",
          "type": "bytes32"
        }
      ],
      "name": "UUPSUnsupportedProxiableUUID",
      "type": "error"
    },
    {
      "anonymous": false,
      "inputs": [],
      "name": "EIP712DomainChanged",
      "type": "event"
    },
    {
      "anonymous": false,
      "inputs": [
        {
          "indexed": false,
          "internalType": "uint64",
          "name": "version",
          "type": "uint64"
        }
      ],
      "name": "Initialized",
      "type": "event"
    },
    {
      "anonymous": false,
      "inputs": [
        {
          "indexed": true,
          "internalType": "address",
          "name": "previousOwner",
          "type": "address"
        },
        {
          "indexed": true,
          "internalType": "address",
          "name": "newOwner",
          "type": "address"
        }
      ],
      "name": "OwnershipTransferred",
      "type": "event"
    },
    {
      "anonymous": false,
      "inputs": [
        {
          "indexed": true,
          "internalType": "bytes32",
          "name": "paymentId",
          "type": "bytes32"
        },
        {
          "indexed": true,
          "internalType": "bytes32",
          "name": "merchantId",
          "type": "bytes32"
        },
        {
          "indexed": true,
          "internalType": "address",
          "name": "payerAddress",
          "type": "address"
        },
        {
          "indexed": false,
          "internalType": "address",
          "name": "recipientAddress",
          "type": "address"
        },
        {
          "indexed": false,
          "internalType": "address",
          "name": "tokenAddress",
          "type": "address"
        },
        {
          "indexed": false,
          "internalType": "uint256",
          "name": "amount",
          "type": "uint256"
        },
        {
          "indexed": false,
          "internalType": "uint256",
          "name": "fee",
          "type": "uint256"
        },
        {
          "indexed": false,
          "internalType": "uint256",
          "name": "timestamp",
          "type": "uint256"
        }
      ],
      "name": "PaymentCompleted",
      "type": "event"
    },
    {
      "anonymous": false,
      "inputs": [
        {
          "indexed": true,
          "internalType": "bytes32",
          "name": "originalPaymentId",
          "type": "bytes32"
        },
        {
          "indexed": true,
          "internalType": "bytes32",
          "name": "merchantId",
          "type": "bytes32"
        },
        {
          "indexed": true,
          "internalType": "address",
          "name": "payerAddress",
          "type": "address"
        },
        {
          "indexed": false,
          "internalType": "address",
          "name": "merchantAddress",
          "type": "address"
        },
        {
          "indexed": false,
          "internalType": "address",
          "name": "tokenAddress",
          "type": "address"
        },
        {
          "indexed": false,
          "internalType": "uint256",
          "name": "amount",
          "type": "uint256"
        },
        {
          "indexed": false,
          "internalType": "uint256",
          "name": "timestamp",
          "type": "uint256"
        }
      ],
      "name": "RefundCompleted",
      "type": "event"
    },
    {
      "anonymous": false,
      "inputs": [
        {
          "indexed": true,
          "internalType": "address",
          "name": "oldSigner",
          "type": "address"
        },
        {
          "indexed": true,
          "internalType": "address",
          "name": "newSigner",
          "type": "address"
        }
      ],
      "name": "SignerChanged",
      "type": "event"
    },
    {
      "anonymous": false,
      "inputs": [
        {
          "indexed": true,
          "internalType": "address",
          "name": "tokenAddress",
          "type": "address"
        },
        {
          "indexed": true,
          "internalType": "bool",
          "name": "supported",
          "type": "bool"
        }
      ],
      "name": "TokenSupportChanged",
      "type": "event"
    },
    {
      "anonymous": false,
      "inputs": [
        {
          "indexed": true,
          "internalType": "address",
          "name": "oldTreasuryAddress",
          "type": "address"
        },
        {
          "indexed": true,
          "internalType": "address",
          "name": "newTreasuryAddress",
          "type": "address"
        }
      ],
      "name": "TreasuryChanged",
      "type": "event"
    },
    {
      "anonymous": false,
      "inputs": [
        {
          "indexed": true,
          "internalType": "address",
          "name": "implementation",
          "type": "address"
        }
      ],
      "name": "Upgraded",
      "type": "event"
    },
    {
      "inputs": [],
      "name": "MAX_FEE_BPS",
      "outputs": [
        {
          "internalType": "uint16",
          "name": "",
          "type": "uint16"
        }
      ],
      "stateMutability": "view",
      "type": "function"
    },
    {
      "inputs": [],
      "name": "PAYMENT_REQUEST_TYPEHASH",
      "outputs": [
        {
          "internalType": "bytes32",
          "name": "",
          "type": "bytes32"
        }
      ],
      "stateMutability": "view",
      "type": "function"
    },
    {
      "inputs": [],
      "name": "REFUND_REQUEST_TYPEHASH",
      "outputs": [
        {
          "internalType": "bytes32",
          "name": "",
          "type": "bytes32"
        }
      ],
      "stateMutability": "view",
      "type": "function"
    },
    {
      "inputs": [],
      "name": "UPGRADE_INTERFACE_VERSION",
      "outputs": [
        {
          "internalType": "string",
          "name": "",
          "type": "string"
        }
      ],
      "stateMutability": "view",
      "type": "function"
    },
    {
      "inputs": [
        {
          "internalType": "address[]",
          "name": "tokenAddresses",
          "type": "address[]"
        },
        {
          "internalType": "bool[]",
          "name": "supported",
          "type": "bool[]"
        }
      ],
      "name": "batchSetSupportedTokens",
      "outputs": [],
      "stateMutability": "nonpayable",
      "type": "function"
    },
    {
      "inputs": [],
      "name": "eip712Domain",
      "outputs": [
        {
          "internalType": "bytes1",
          "name": "fields",
          "type": "bytes1"
        },
        {
          "internalType": "string",
          "name": "name",
          "type": "string"
        },
        {
          "internalType": "string",
          "name": "version",
          "type": "string"
        },
        {
          "internalType": "uint256",
          "name": "chainId",
          "type": "uint256"
        },
        {
          "internalType": "address",
          "name": "verifyingContract",
          "type": "address"
        },
        {
          "internalType": "bytes32",
          "name": "salt",
          "type": "bytes32"
        },
        {
          "internalType": "uint256[]",
          "name": "extensions",
          "type": "uint256[]"
        }
      ],
      "stateMutability": "view",
      "type": "function"
    },
    {
      "inputs": [],
      "name": "enforceTokenWhitelist",
      "outputs": [
        {
          "internalType": "bool",
          "name": "",
          "type": "bool"
        }
      ],
      "stateMutability": "view",
      "type": "function"
    },
    {
      "inputs": [],
      "name": "getDomainSeparator",
      "outputs": [
        {
          "internalType": "bytes32",
          "name": "",
          "type": "bytes32"
        }
      ],
      "stateMutability": "view",
      "type": "function"
    },
    {
      "inputs": [],
      "name": "getTrustedForwarder",
      "outputs": [
        {
          "internalType": "address",
          "name": "",
          "type": "address"
        }
      ],
      "stateMutability": "view",
      "type": "function"
    },
    {
      "inputs": [
        {
          "internalType": "address",
          "name": "owner",
          "type": "address"
        },
        {
          "internalType": "address",
          "name": "treasury",
          "type": "address"
        },
        {
          "internalType": "address",
          "name": "signer",
          "type": "address"
        }
      ],
      "name": "initialize",
      "outputs": [],
      "stateMutability": "nonpayable",
      "type": "function"
    },
    {
      "inputs": [
        {
          "internalType": "bytes32",
          "name": "paymentId",
          "type": "bytes32"
        }
      ],
      "name": "isPaymentProcessed",
      "outputs": [
        {
          "internalType": "bool",
          "name": "",
          "type": "bool"
        }
      ],
      "stateMutability": "view",
      "type": "function"
    },
    {
      "inputs": [
        {
          "internalType": "bytes32",
          "name": "paymentId",
          "type": "bytes32"
        }
      ],
      "name": "isPaymentRefunded",
      "outputs": [
        {
          "internalType": "bool",
          "name": "",
          "type": "bool"
        }
      ],
      "stateMutability": "view",
      "type": "function"
    },
    {
      "inputs": [
        {
          "internalType": "address",
          "name": "forwarder",
          "type": "address"
        }
      ],
      "name": "isTrustedForwarder",
      "outputs": [
        {
          "internalType": "bool",
          "name": "",
          "type": "bool"
        }
      ],
      "stateMutability": "view",
      "type": "function"
    },
    {
      "inputs": [],
      "name": "owner",
      "outputs": [
        {
          "internalType": "address",
          "name": "",
          "type": "address"
        }
      ],
      "stateMutability": "view",
      "type": "function"
    },
    {
      "inputs": [
        {
          "internalType": "bytes32",
          "name": "paymentId",
          "type": "bytes32"
        },
        {
          "internalType": "address",
          "name": "tokenAddress",
          "type": "address"
        },
        {
          "internalType": "uint256",
          "name": "amount",
          "type": "uint256"
        },
        {
          "internalType": "address",
          "name": "recipientAddress",
          "type": "address"
        },
        {
          "internalType": "bytes32",
          "name": "merchantId",
          "type": "bytes32"
        },
        {
          "internalType": "uint16",
          "name": "feeBps",
          "type": "uint16"
        },
        {
          "internalType": "bytes",
          "name": "serverSignature",
          "type": "bytes"
        }
      ],
      "name": "pay",
      "outputs": [],
      "stateMutability": "nonpayable",
      "type": "function"
    },
    {
      "inputs": [
        {
          "internalType": "bytes32",
          "name": "",
          "type": "bytes32"
        }
      ],
      "name": "processedPayments",
      "outputs": [
        {
          "internalType": "bool",
          "name": "",
          "type": "bool"
        }
      ],
      "stateMutability": "view",
      "type": "function"
    },
    {
      "inputs": [],
      "name": "proxiableUUID",
      "outputs": [
        {
          "internalType": "bytes32",
          "name": "",
          "type": "bytes32"
        }
      ],
      "stateMutability": "view",
      "type": "function"
    },
    {
      "inputs": [
        {
          "internalType": "bytes32",
          "name": "originalPaymentId",
          "type": "bytes32"
        },
        {
          "internalType": "address",
          "name": "tokenAddress",
          "type": "address"
        },
        {
          "internalType": "uint256",
          "name": "amount",
          "type": "uint256"
        },
        {
          "internalType": "address",
          "name": "payerAddress",
          "type": "address"
        },
        {
          "internalType": "bytes32",
          "name": "merchantId",
          "type": "bytes32"
        },
        {
          "internalType": "uint256",
          "name": "deadline",
          "type": "uint256"
        },
        {
          "internalType": "bytes",
          "name": "serverSignature",
          "type": "bytes"
        }
      ],
      "name": "refund",
      "outputs": [],
      "stateMutability": "nonpayable",
      "type": "function"
    },
    {
      "inputs": [
        {
          "internalType": "bytes32",
          "name": "",
          "type": "bytes32"
        }
      ],
      "name": "refundedPayments",
      "outputs": [
        {
          "internalType": "bool",
          "name": "",
          "type": "bool"
        }
      ],
      "stateMutability": "view",
      "type": "function"
    },
    {
      "inputs": [],
      "name": "renounceOwnership",
      "outputs": [],
      "stateMutability": "nonpayable",
      "type": "function"
    },
    {
      "inputs": [
        {
          "internalType": "bool",
          "name": "enforce",
          "type": "bool"
        }
      ],
      "name": "setEnforceTokenWhitelist",
      "outputs": [],
      "stateMutability": "nonpayable",
      "type": "function"
    },
    {
      "inputs": [
        {
          "internalType": "address",
          "name": "newSigner",
          "type": "address"
        }
      ],
      "name": "setSigner",
      "outputs": [],
      "stateMutability": "nonpayable",
      "type": "function"
    },
    {
      "inputs": [
        {
          "internalType": "address",
          "name": "tokenAddress",
          "type": "address"
        },
        {
          "internalType": "bool",
          "name": "supported",
          "type": "bool"
        }
      ],
      "name": "setSupportedToken",
      "outputs": [],
      "stateMutability": "nonpayable",
      "type": "function"
    },
    {
      "inputs": [
        {
          "internalType": "address",
          "name": "newTreasuryAddress",
          "type": "address"
        }
      ],
      "name": "setTreasury",
      "outputs": [],
      "stateMutability": "nonpayable",
      "type": "function"
    },
    {
      "inputs": [],
      "name": "signerAddress",
      "outputs": [
        {
          "internalType": "address",
          "name": "",
          "type": "address"
        }
      ],
      "stateMutability": "view",
      "type": "function"
    },
    {
      "inputs": [
        {
          "internalType": "address",
          "name": "",
          "type": "address"
        }
      ],
      "name": "supportedTokens",
      "outputs": [
        {
          "internalType": "bool",
          "name": "",
          "type": "bool"
        }
      ],
      "stateMutability": "view",
      "type": "function"
    },
    {
      "inputs": [
        {
          "internalType": "address",
          "name": "newOwner",
          "type": "address"
        }
      ],
      "name": "transferOwnership",
      "outputs": [],
      "stateMutability": "nonpayable",
      "type": "function"
    },
    {
      "inputs": [],
      "name": "treasuryAddress",
      "outputs": [
        {
          "internalType": "address",
          "name": "",
          "type": "address"
        }
      ],
      "stateMutability": "view",
      "type": "function"
    },
    {
      "inputs": [],
      "name": "trustedForwarder",
      "outputs": [
        {
          "internalType": "address",
          "name": "",
          "type": "address"
        }
      ],
      "stateMutability": "view",
      "type": "function"
    },
    {
      "inputs": [
        {
          "internalType": "address",
          "name": "newImplementation",
          "type": "address"
        },
        {
          "internalType": "bytes",
          "name": "data",
          "type": "bytes"
        }
      ],
      "name": "upgradeToAndCall",
      "outputs": [],
      "stateMutability": "payable",
      "type": "function"
    }
  ],
  "bytecode": "0x60c03462000128576001600160401b0390601f6200246c38819003918201601f1916830191848311848410176200012d578084926020946040528339810103126200012857516001600160a01b038116810362000128573060805260a0527ff0c57e16840df040f15088dc2f81fe391c3923bec73e23a9662efc9c229c6a009081549060ff8260401c1662000116578080831603620000d0575b604051612328908162000144823960805181818161144601526114ff015260a0518181816102d7015281816113ff0152611ef70152f35b6001600160401b031990911681179091556040519081527fc7f505b2f371ae2175ee4913f4499e1f2633a7b5936321eed1cdaeb6115181d290602090a138808062000099565b60405163f92ee8a960e01b8152600490fd5b600080fd5b634e487b7160e01b600052604160045260246000fdfe608080604052600436101561001357600080fd5b60003560e01c90816304ffe4181461178d575080631e049b661461175257806322fda2ba146117175780632d07a7f4146116de5780634a0ea4d7146101695780634f1ef286146114b057806352d1902d14611433578063572b6c05146113df5780635b7633d0146113b657806368c4ac26146113775780636c19e7831461134e578063715018a6146112e45780637da0a877146102c157806384b0196e146111885780638da5cb5b1461115257806392cd210614610ff55780639ba86c1714610bcf5780639be2f49414610909578063ad3cb1cc146108bf578063b73621151461088e578063baca75ee1461088e578063c0c53b8b14610333578063c5f956af14610306578063ce1b815f146102c1578063d55be8c6146102a4578063e798646614610216578063ed24911d146101f3578063f0f44260146101ca578063f2fde38b1461019f5763f3f247eb1461016957600080fd5b3461019a57602036600319011261019a576004356000526000602052602060ff604060002054166040519015158152f35b600080fd5b3461019a57602036600319011261019a576101c86101bb6117ad565b6101c3611aba565b611a46565b005b3461019a57602036600319011261019a576101c86101e66117ad565b6101ee611aba565b611e31565b3461019a57600036600319011261019a57602061020e611f7a565b604051908152f35b3461019a57604036600319011261019a5761022f6117ad565b6024358015159182820361019a5761027d90610249611aba565b6001600160a01b03169161025e831515611970565b82600052600260205260406000209060ff801983541691151516179055565b7f4e64f955f4c1a97a6779d936a2fe8f59e1674f3e1a4c883736b9131969860a89600080a3005b3461019a57600036600319011261019a5760206040516127108152f35b3461019a57600036600319011261019a576040517f00000000000000000000000000000000000000000000000000000000000000006001600160a01b03168152602090f35b3461019a57600036600319011261019a5760035460405160089190911c6001600160a01b03168152602090f35b3461019a57606036600319011261019a5761034c6117ad565b6103546117c3565b6044356001600160a01b038116900361019a576000805160206122d383398151915254916001600160401b0383168015908161087e575b6001149081610874575b15908161086b575b50610859576103e99060016001600160401b03198516176000805160206122d38339815191525560ff8460401c161561082c575b6103d9611f4b565b6103e1611f4b565b6101c3611f4b565b6103f1611f4b565b6103f9611f4b565b60016000805160206122b383398151915255604051916104188361180b565b600e83526d536f6c6f5061794761746577617960901b6020840152604051916104408361180b565b60018352603160f81b6020840152610456611f4b565b61045e611f4b565b83516001600160401b0381116107065761048660008051602061225383398151915254611b96565b601f81116107b6575b506020601f821160011461072757819293949560009261071c575b50508160011b916000199060031b1c191617600080516020612253833981519152555b82516001600160401b038111610706577fa16a46d94261c7517cc8ff89f61c0ce93598e3c849801011dee649a6a557d103906105098254611b96565b601f81116106a2575b506020601f821160011461061857908061059e94939260ff9760009261060d575b50508160011b916000199060031b1c19161790555b60007fa16a46d94261c7517cc8ff89f61c0ce93598e3c849801011dee649a6a557d1005560007fa16a46d94261c7517cc8ff89f61c0ce93598e3c849801011dee649a6a557d10155831960035416600355611e31565b6105a9604435611b08565b60401c16156105b457005b68ff0000000000000000196000805160206122d383398151915254166000805160206122d3833981519152557fc7f505b2f371ae2175ee4913f4499e1f2633a7b5936321eed1cdaeb6115181d2602060405160018152a1005b015190508780610533565b601f19821695836000527f5f9ce34815f8e11431c7bb75a8e6886a91478f7ffc1dbb0a98dc240fddd76b759660005b81811061068a575096600192849261059e97969560ff9a10610671575b505050811b019055610548565b015160001960f88460031b161c19169055878080610664565b83830151895560019098019760209384019301610647565b826000527f5f9ce34815f8e11431c7bb75a8e6886a91478f7ffc1dbb0a98dc240fddd76b75601f830160051c810191602084106106fc575b601f0160051c01905b8181106106f05750610512565b600081556001016106e3565b90915081906106da565b634e487b7160e01b600052604160045260246000fd5b0151905085806104aa565b6000805160206122538339815191526000526000805160206122938339815191529060005b601f198416811061079e575060019394959683601f19811610610785575b505050811b01600080516020612253833981519152556104cd565b015160001960f88460031b161c1916905585808061076a565b9091602060018192858b01518155019301910161074c565b600080516020612253833981519152600052601f820160051c6000805160206122938339815191520160208310610817575b601f820160051c60008051602061229383398151915201811061080b575061048f565b600081556001016107e8565b506000805160206122938339815191526107e8565b68ffffffffffffffffff19841668010000000000000001176000805160206122d3833981519152556103d1565b60405163f92ee8a960e01b8152600490fd5b9050158461039d565b303b159150610395565b604085901c60ff1615915061038b565b3461019a57602036600319011261019a576004356000526001602052602060ff604060002054166040519015158152f35b3461019a57600036600319011261019a576109056040516108df8161180b565b60058152640352e302e360dc1b6020820152604051918291602083526020830190611899565b0390f35b3461019a5760e036600319011261019a576004356109256117c3565b90604435906109326117d9565b6084359260a4359460c4356001600160401b03811161019a57610959903690600401611909565b9091610963611d57565b874211610b9257856000526020916000835260ff6040600020541615610b5557866000526001835260ff60406000205416610b19576109a38515156119bd565b6001600160a01b03918216936109ba851515611970565b828716998a15610ae057610a7c610a738694610a6d8997958f8f8f909b7f7e5fe09e3150ab5da869814eeed66253403e9a7c4d41e0c493099f9d755417779f9d9860809f9d610a65948f610a8a9c604051958601967f43470db2e8d478ea727f07d98445e3878cbfc1f31cd869bef0e7e96f6f0e06b9885260408701526060860152608085015260a084015260c083015260e082015260e08152610a5d816117ef565b519020611f25565b923691611862565b90611fef565b9092919261202b565b828060045416911614611a02565b87600052600182526040600020600160ff19825416179055610ab684610aae611ecc565b968786611d87565b604051941684528301526040820152426060820152a460016000805160206122b383398151915255005b60405162461bcd60e51b815260048101869052601160248201527028239d1034b73b30b634b2103830bcb2b960791b6044820152606490fd5b60405162461bcd60e51b81526004810184905260146024820152731411ce88185b1c9958591e481c99599d5b99195960621b6044820152606490fd5b60405162461bcd60e51b81526004810184905260156024820152741411ce881c185e5b595b9d081b9bdd08199bdd5b99605a1b6044820152606490fd5b60405162461bcd60e51b81526020600482015260156024820152741411ce881cda59db985d1d5c9948195e1c1a5c9959605a1b6044820152606490fd5b3461019a5760e036600319011261019a57610be86117c3565b610bf06117d9565b9060a4359061ffff8216820361019a5760c4356001600160401b03811161019a57610c1f903690600401611909565b610c2a939193611d57565b610c32611ecc565b6003549094600882901c6001600160a01b031615610fb9576004546001600160a01b03168015610f7f57600435600052600060205260ff60406000205416610f4257610c8160443515156119bd565b610c956001600160a01b0387161515611970565b6001600160a01b03881615610f055761271061ffff861611610ecd57610d3b610a7360ff95610a6d610d4a95610a658b8e6040519060208201927f72d781e0942cb269e920d3563ab7d2adea5c28bad1c9364c70dcb529638cff658452600435604084015260018060a01b03166060830152604435608083015260018060a01b031660a082015260843560c082015261ffff8d1660e082015260e08152610a5d816117ef565b6001600160a01b031614611a02565b16610e68575b61ffff8116604435029061ffff6044358304911614604435151715610e525761271090049081604435036044358111610e5257610db99060043560005260006020526040600020600160ff1982541617905583610e2c575b85856001600160a01b038516611d87565b604080516001600160a01b039586168152918516602083015260443590820152606081019190915242608082015291169060843590600435907f6888e6ff9d4b95724cdc09df022158fed4ab42ee444dc4af1c561b8436bef1479060a090a460016000805160206122b383398151915255005b600354610e4d90859060081c6001600160a01b039081169088908716611d87565b610da8565b634e487b7160e01b600052601160045260246000fd5b6001600160a01b03821660009081526002602052604090205460ff16610d505760405162461bcd60e51b815260206004820152601760248201527f50473a20746f6b656e206e6f7420737570706f727465640000000000000000006044820152606490fd5b60405162461bcd60e51b815260206004820152601060248201526f0a08e7440cccaca40e8dede40d0d2ced60831b6044820152606490fd5b60405162461bcd60e51b81526020600482015260156024820152741411ce881a5b9d985b1a59081c9958da5c1a595b9d605a1b6044820152606490fd5b60405162461bcd60e51b81526020600482015260156024820152741411ce88185b1c9958591e481c1c9bd8d95cdcd959605a1b6044820152606490fd5b60405162461bcd60e51b81526020600482015260126024820152711411ce881cda59db995c881b9bdd081cd95d60721b6044820152606490fd5b60405162461bcd60e51b81526020600482015260146024820152731411ce881d1c99585cdd5c9e481b9bdd081cd95d60621b6044820152606490fd5b3461019a57604036600319011261019a576001600160401b0360043581811161019a576110269036906004016118d9565b909160243590811161019a576110409036906004016118d9565b919061104a611aba565b8282036111175760005b82811061105d57005b6001906001600160a01b036110878161107f61107a85898c611936565b61195c565b161515611970565b6110cb61109d611098848988611936565b6119b0565b826110ac61107a868a8d611936565b16600052600260205260406000209060ff801983541691151516179055565b6110d961107a83878a611936565b906110e8611098848988611936565b151591167f4e64f955f4c1a97a6779d936a2fe8f59e1674f3e1a4c883736b9131969860a89600080a301611054565b60405162461bcd60e51b81526020600482015260136024820152720a08e7440d8cadccee8d040dad2e6dac2e8c6d606b1b6044820152606490fd5b3461019a57600036600319011261019a57600080516020612273833981519152546040516001600160a01b039091168152602090f35b3461019a57600036600319011261019a577fa16a46d94261c7517cc8ff89f61c0ce93598e3c849801011dee649a6a557d1005415806112bb575b1561127e576111cf611bd0565b6111d7611c96565b6040516020808201928284106001600160401b03851117610706579160206112318594611223979660405260008452604051978897600f60f81b895260e0858a015260e0890190611899565b908782036040890152611899565b91466060870152306080870152600060a087015285830360c0870152519182815201929160005b82811061126757505050500390f35b835185528695509381019392810192600101611258565b60405162461bcd60e51b81526020600482015260156024820152741152540dcc4c8e88155b9a5b9a5d1a585b1a5e9959605a1b6044820152606490fd5b507fa16a46d94261c7517cc8ff89f61c0ce93598e3c849801011dee649a6a557d10154156111c2565b3461019a57600036600319011261019a576112fd611aba565b60008051602061227383398151915280546001600160a01b031981169091556000906001600160a01b03167f8be0079c531659141344cd1fd0a4f28419497f9722a3daafe3b4186f6b6457e08280a3005b3461019a57602036600319011261019a576101c861136a6117ad565b611372611aba565b611b08565b3461019a57602036600319011261019a576001600160a01b036113986117ad565b166000526002602052602060ff604060002054166040519015158152f35b3461019a57600036600319011261019a576004546040516001600160a01b039091168152602090f35b3461019a57602036600319011261019a5760206113fa6117ad565b6040517f00000000000000000000000000000000000000000000000000000000000000006001600160a01b039081169216919091148152f35b3461019a57600036600319011261019a577f00000000000000000000000000000000000000000000000000000000000000006001600160a01b0316300361149e5760206040517f360894a13ba1a3210667c828492db98dca3e2076cc3735a920a3ca505d382bbc8152f35b60405163703e46dd60e11b8152600490fd5b604036600319011261019a576114c46117ad565b6024356001600160401b03811161019a573660238201121561019a576114f4903690602481600401359101611862565b906001600160a01b037f000000000000000000000000000000000000000000000000000000000000000081163081149081156116b0575b5061149e57611538611aba565b6040516352d1902d60e01b8152908216916020918281600481875afa60009181611681575b5061157b57604051634c9c8ce360e01b815260048101859052602490fd5b9284937f360894a13ba1a3210667c828492db98dca3e2076cc3735a920a3ca505d382bbc908181036116695750823b156116505780546001600160a01b03191682179055604051907fbc7cd75a20ee27fd9adebab32041f755214dbc6bffa90cc0225b39da2e5c2d3b600080a2835115611636575060008084846101c896519101845af4903d1561162d573d61161081611847565b9061161e6040519283611826565b8152600081943d92013e61215f565b6060925061215f565b925050503461164157005b63b398979f60e01b8152600490fd5b604051634c9c8ce360e01b815260048101839052602490fd5b60249060405190632a87526960e21b82526004820152fd5b9091508381813d83116116a9575b6116998183611826565b8101031261019a5751908661155d565b503d61168f565b9050817f360894a13ba1a3210667c828492db98dca3e2076cc3735a920a3ca505d382bbc541614158461152b565b3461019a57602036600319011261019a5760043580151580910361019a57611704611aba565b60ff801960035416911617600355600080f35b3461019a57600036600319011261019a5760206040517f43470db2e8d478ea727f07d98445e3878cbfc1f31cd869bef0e7e96f6f0e06b98152f35b3461019a57600036600319011261019a5760206040517f72d781e0942cb269e920d3563ab7d2adea5c28bad1c9364c70dcb529638cff658152f35b3461019a57600036600319011261019a5760209060ff6003541615158152f35b600435906001600160a01b038216820361019a57565b602435906001600160a01b038216820361019a57565b606435906001600160a01b038216820361019a57565b61010081019081106001600160401b0382111761070657604052565b604081019081106001600160401b0382111761070657604052565b90601f801991011681019081106001600160401b0382111761070657604052565b6001600160401b03811161070657601f01601f191660200190565b92919261186e82611847565b9161187c6040519384611826565b82948184528183011161019a578281602093846000960137010152565b919082519283825260005b8481106118c5575050826000602080949584010152601f8019910116010190565b6020818301810151848301820152016118a4565b9181601f8401121561019a578235916001600160401b03831161019a576020808501948460051b01011161019a57565b9181601f8401121561019a578235916001600160401b03831161019a576020838186019501011161019a57565b91908110156119465760051b0190565b634e487b7160e01b600052603260045260246000fd5b356001600160a01b038116810361019a5790565b1561197757565b60405162461bcd60e51b815260206004820152601160248201527028239d1034b73b30b634b2103a37b5b2b760791b6044820152606490fd5b35801515810361019a5790565b156119c457565b60405162461bcd60e51b8152602060048201526016602482015275050473a20616d6f756e74206d757374206265203e20360541b6044820152606490fd5b15611a0957565b60405162461bcd60e51b815260206004820152601560248201527450473a20696e76616c6964207369676e617475726560581b6044820152606490fd5b6001600160a01b03908116908115611aa15760008051602061227383398151915280546001600160a01b031981168417909155167f8be0079c531659141344cd1fd0a4f28419497f9722a3daafe3b4186f6b6457e0600080a3565b604051631e4fbdf760e01b815260006004820152602490fd5b600080516020612273833981519152546001600160a01b0390811681611ade611ecc565b1603611ae75750565b602490611af2611ecc565b60405163118cdaa760e01b815291166004820152fd5b6001600160a01b03908116908115611b5c57600454826bffffffffffffffffffffffff60a01b821617600455167feeb293e1f8f3a9db91ade748726387ed1352ca78f5430c5f06fe3d1e1ad50579600080a3565b60405162461bcd60e51b815260206004820152601260248201527128239d1034b73b30b634b21039b4b3b732b960711b6044820152606490fd5b90600182811c92168015611bc6575b6020831014611bb057565b634e487b7160e01b600052602260045260246000fd5b91607f1691611ba5565b6040519060008260008051602061225383398151915291825492611bf384611b96565b80845293602091600191828116908115611c705750600114611c21575b505050611c1f92500383611826565b565b60009081526000805160206122938339815191529590935091905b828410611c585750611c1f945050508101602001388080611c10565b85548885018301529485019487945092810192611c3c565b9250505060209250611c1f94915060ff191682840152151560051b820101388080611c10565b604051906000827fa16a46d94261c7517cc8ff89f61c0ce93598e3c849801011dee649a6a557d10391825492611ccb84611b96565b80845293602091600191828116908115611c705750600114611cf657505050611c1f92500383611826565b60009081527f5f9ce34815f8e11431c7bb75a8e6886a91478f7ffc1dbb0a98dc240fddd76b759590935091905b828410611d3f5750611c1f945050508101602001388080611c10565b85548885018301529485019487945092810192611d23565b6000805160206122b38339815191526002815414611d755760029055565b604051633ee5aeb560e01b8152600490fd5b6040516323b872dd60e01b602082019081526001600160a01b039384166024830152938316604482015260648082019590955293845292909160a08201906001600160401b0382118383101761070657602092600092604052519082865af115611e25576000513d611e1c57508082163b155b611e02575050565b604051635274afe760e01b81529116600482015260249150fd5b60011415611dfa565b6040513d6000823e3d90fd5b6001600160a01b03818116918215611e905760038054610100600160a81b03198116600893841b610100600160a81b031617909155901c167f8c3aa5f43a388513435861bf27dfad7829cd248696fed367c62d441f62954496600080a3565b60405162461bcd60e51b815260206004820152601460248201527350473a20696e76616c696420747265617375727960601b6044820152606490fd5b601436101580611ef3575b15611eef57601319360136811161019a573560601c90565b3390565b50337f00000000000000000000000000000000000000000000000000000000000000006001600160a01b031614611ed7565b604290611f30611f7a565b906040519161190160f01b8352600283015260228201522090565b60ff6000805160206122d38339815191525460401c1615611f6857565b604051631afcd79f60e31b8152600490fd5b611f826120b0565b611f8a61211a565b6040519060208201927f8b73c3c69bb8fe3d512ecc4cf759cc79239f7b179b0ffacaa9a75d522b39400f8452604083015260608201524660808201523060a082015260a0815260c081018181106001600160401b038211176107065760405251902090565b81519190604183036120205761201992506020820151906060604084015193015160001a906121c2565b9192909190565b505060009160029190565b600481101561209a578061203d575050565b600181036120575760405163f645eedf60e01b8152600490fd5b600281036120785760405163fce698f760e01b815260048101839052602490fd5b6003146120825750565b602490604051906335e2f38360e21b82526004820152fd5b634e487b7160e01b600052602160045260246000fd5b6120b8611bd0565b80519081156120c8576020012090565b50507fa16a46d94261c7517cc8ff89f61c0ce93598e3c849801011dee649a6a557d1005480156120f55790565b507fc5d2460186f7233c927e7db2dcc703c0e500b653ca82273b7bfad8045d85a47090565b612122611c96565b8051908115612132576020012090565b50507fa16a46d94261c7517cc8ff89f61c0ce93598e3c849801011dee649a6a557d1015480156120f55790565b90612186575080511561217457602081519101fd5b60405163d6bda27560e01b8152600490fd5b815115806121b9575b612197575090565b604051639996b31560e01b81526001600160a01b039091166004820152602490fd5b50803b1561218f565b91907f7fffffffffffffffffffffffffffffff5d576e7357a4501ddfe92f46681b20a0841161224657926020929160ff608095604051948552168484015260408301526060820152600092839182805260015afa1561223a5780516001600160a01b0381161561223157918190565b50809160019190565b604051903d90823e3d90fd5b5050506000916003919056fea16a46d94261c7517cc8ff89f61c0ce93598e3c849801011dee649a6a557d1029016d09d72d40fdae2fd8ceac6b6234c7706214fd39c1cd1e609a0528c19930042ad5d3e1f2e6e70edcf6d991b8a3023d3fca8047a131592f9edb9fd9b89d57d9b779b17422d0df92223018b32b4d1fa46e071723d6817e2486d003becc55f00f0c57e16840df040f15088dc2f81fe391c3923bec73e23a9662efc9c229c6a00a2646970667358221220087cc8dcca0f9a6b6374c26bc86855892571660dc584593c4c35f5d2bc79c7ca64736f6c63430008180033",
  "linkReferences": {},
  "deployedLinkReferences": {}
}