{
  "_format": "hh-sol-artifact-1",
  "contractName": "PaymentGatewayV1",
  "sourceName": "src/PaymentGatewayV1.sol",
  "abi": [
    {
      "inputs": [
        {
          "internalType": "address",
          "name": "trustedForwarderAddress",
          "type": "address"
        }
      ],
      "stateMutability": "nonpayable",
      "type": "constructor"
    },
    {
      "inputs": [
        {
          "internalType": "address",
          "name": "target",
          "type": "address"
        }
      ],
      "name": "AddressEmptyCode",
      "type": "error"
    },
    {
      "inputs": [],
      "name": "ECDSAInvalidSignature",
      "type": "error"
    },
    {
      "inputs": [
        {
          "internalType": "uint256",
          "name": "length",
          "type": "uint256"
        }
      ],
      "name": "ECDSAInvalidSignatureLength",
      "type": "error"
    },
    {
      "inputs": [
        {
          "internalType": "bytes32",
          "name": "s",
          "type": "bytes32"
        }
      ],
      "name": "ECDSAInvalidSignatureS",
      "type": "error"
    },
    {
      "inputs": [
        {
          "internalType": "address",
          "name": "implementation",
          "type": "address"
        }
      ],
      "name": "ERC1967InvalidImplementation",
      "type": "error"
    },
    {
      "inputs": [],
      "name": "ERC1967NonPayable",
      "type": "error"
    },
    {
      "inputs": [],
      "name": "FailedCall",
      "type": "error"
    },
    {
      "inputs": [],
      "name": "InvalidInitialization",
      "type": "error"
    },
    {
      "inputs": [],
      "name": "NotInitializing",
      "type": "error"
    },
    {
      "inputs": [
        {
          "internalType": "address",
          "name": "owner",
          "type": "address"
        }
      ],
      "name": "OwnableInvalidOwner",
      "type": "error"
    },
    {
      "inputs": [
        {
          "internalType": "address",
          "name": "account",
          "type": "address"
        }
      ],
      "name": "OwnableUnauthorizedAccount",
      "type": "error"
    },
    {
      "inputs": [],
      "name": "ReentrancyGuardReentrantCall",
      "type": "error"
    },
    {
      "inputs": [
        {
          "internalType": "address",
          "name": "token",
          "type": "address"
        }
      ],
      "name": "SafeERC20FailedOperation",
      "type": "error"
    },
    {
      "inputs": [],
      "name": "UUPSUnauthorizedCallContext",
      "type": "error"
    },
    {
      "inputs": [
        {
          "internalType": "bytes32",
          "name": "slot",
          "type": "bytes32"
        }
      ],
      "name": "UUPSUnsupportedProxiableUUID",
      "type": "error"
    },
    {
      "anonymous": false,
      "inputs": [],
      "name": "EIP712DomainChanged",
      "type": "event"
    },
    {
      "anonymous": false,
      "inputs": [
        {
          "indexed": false,
          "internalType": "uint64",
          "name": "version",
          "type": "uint64"
        }
      ],
      "name": "Initialized",
      "type": "event"
    },
    {
      "anonymous": false,
      "inputs": [
        {
          "indexed": true,
          "internalType": "address",
          "name": "previousOwner",
          "type": "address"
        },
        {
          "indexed": true,
          "internalType": "address",
          "name": "newOwner",
          "type": "address"
        }
      ],
      "name": "OwnershipTransferred",
      "type": "event"
    },
    {
      "anonymous": false,
      "inputs": [
        {
          "indexed": true,
          "internalType": "bytes32",
          "name": "paymentId",
          "type": "bytes32"
        },
        {
          "indexed": true,
          "internalType": "bytes32",
          "name": "merchantId",
          "type": "bytes32"
        },
        {
          "indexed": true,
          "internalType": "address",
          "name": "payerAddress",
          "type": "address"
        },
        {
          "indexed": false,
          "internalType": "address",
          "name": "recipientAddress",
          "type": "address"
        },
        {
          "indexed": false,
          "internalType": "address",
          "name": "tokenAddress",
          "type": "address"
        },
        {
          "indexed": false,
          "internalType": "uint256",
          "name": "amount",
          "type": "uint256"
        },
        {
          "indexed": false,
          "internalType": "uint256",
          "name": "fee",
          "type": "uint256"
        },
        {
          "indexed": false,
          "internalType": "uint256",
          "name": "timestamp",
          "type": "uint256"
        }
      ],
      "name": "PaymentCompleted",
      "type": "event"
    },
    {
      "anonymous": false,
      "inputs": [
        {
          "indexed": true,
          "internalType": "address",
          "name": "oldSigner",
          "type": "address"
        },
        {
          "indexed": true,
          "internalType": "address",
          "name": "newSigner",
          "type": "address"
        }
      ],
      "name": "SignerChanged",
      "type": "event"
    },
    {
      "anonymous": false,
      "inputs": [
        {
          "indexed": true,
          "internalType": "address",
          "name": "tokenAddress",
          "type": "address"
        },
        {
          "indexed": true,
          "internalType": "bool",
          "name": "supported",
          "type": "bool"
        }
      ],
      "name": "TokenSupportChanged",
      "type": "event"
    },
    {
      "anonymous": false,
      "inputs": [
        {
          "indexed": true,
          "internalType": "address",
          "name": "oldTreasuryAddress",
          "type": "address"
        },
        {
          "indexed": true,
          "internalType": "address",
          "name": "newTreasuryAddress",
          "type": "address"
        }
      ],
      "name": "TreasuryChanged",
      "type": "event"
    },
    {
      "anonymous": false,
      "inputs": [
        {
          "indexed": true,
          "internalType": "address",
          "name": "implementation",
          "type": "address"
        }
      ],
      "name": "Upgraded",
      "type": "event"
    },
    {
      "inputs": [],
      "name": "MAX_FEE_BPS",
      "outputs": [
        {
          "internalType": "uint16",
          "name": "",
          "type": "uint16"
        }
      ],
      "stateMutability": "view",
      "type": "function"
    },
    {
      "inputs": [],
      "name": "PAYMENT_REQUEST_TYPEHASH",
      "outputs": [
        {
          "internalType": "bytes32",
          "name": "",
          "type": "bytes32"
        }
      ],
      "stateMutability": "view",
      "type": "function"
    },
    {
      "inputs": [],
      "name": "UPGRADE_INTERFACE_VERSION",
      "outputs": [
        {
          "internalType": "string",
          "name": "",
          "type": "string"
        }
      ],
      "stateMutability": "view",
      "type": "function"
    },
    {
      "inputs": [
        {
          "internalType": "address[]",
          "name": "tokenAddresses",
          "type": "address[]"
        },
        {
          "internalType": "bool[]",
          "name": "supported",
          "type": "bool[]"
        }
      ],
      "name": "batchSetSupportedTokens",
      "outputs": [],
      "stateMutability": "nonpayable",
      "type": "function"
    },
    {
      "inputs": [],
      "name": "eip712Domain",
      "outputs": [
        {
          "internalType": "bytes1",
          "name": "fields",
          "type": "bytes1"
        },
        {
          "internalType": "string",
          "name": "name",
          "type": "string"
        },
        {
          "internalType": "string",
          "name": "version",
          "type": "string"
        },
        {
          "internalType": "uint256",
          "name": "chainId",
          "type": "uint256"
        },
        {
          "internalType": "address",
          "name": "verifyingContract",
          "type": "address"
        },
        {
          "internalType": "bytes32",
          "name": "salt",
          "type": "bytes32"
        },
        {
          "internalType": "uint256[]",
          "name": "extensions",
          "type": "uint256[]"
        }
      ],
      "stateMutability": "view",
      "type": "function"
    },
    {
      "inputs": [],
      "name": "enforceTokenWhitelist",
      "outputs": [
        {
          "internalType": "bool",
          "name": "",
          "type": "bool"
        }
      ],
      "stateMutability": "view",
      "type": "function"
    },
    {
      "inputs": [],
      "name": "getDomainSeparator",
      "outputs": [
        {
          "internalType": "bytes32",
          "name": "",
          "type": "bytes32"
        }
      ],
      "stateMutability": "view",
      "type": "function"
    },
    {
      "inputs": [],
      "name": "getTrustedForwarder",
      "outputs": [
        {
          "internalType": "address",
          "name": "",
          "type": "address"
        }
      ],
      "stateMutability": "view",
      "type": "function"
    },
    {
      "inputs": [
        {
          "internalType": "address",
          "name": "owner",
          "type": "address"
        },
        {
          "internalType": "address",
          "name": "treasury",
          "type": "address"
        },
        {
          "internalType": "address",
          "name": "signer",
          "type": "address"
        }
      ],
      "name": "initialize",
      "outputs": [],
      "stateMutability": "nonpayable",
      "type": "function"
    },
    {
      "inputs": [
        {
          "internalType": "bytes32",
          "name": "paymentId",
          "type": "bytes32"
        }
      ],
      "name": "isPaymentProcessed",
      "outputs": [
        {
          "internalType": "bool",
          "name": "",
          "type": "bool"
        }
      ],
      "stateMutability": "view",
      "type": "function"
    },
    {
      "inputs": [
        {
          "internalType": "address",
          "name": "forwarder",
          "type": "address"
        }
      ],
      "name": "isTrustedForwarder",
      "outputs": [
        {
          "internalType": "bool",
          "name": "",
          "type": "bool"
        }
      ],
      "stateMutability": "view",
      "type": "function"
    },
    {
      "inputs": [],
      "name": "owner",
      "outputs": [
        {
          "internalType": "address",
          "name": "",
          "type": "address"
        }
      ],
      "stateMutability": "view",
      "type": "function"
    },
    {
      "inputs": [
        {
          "internalType": "bytes32",
          "name": "paymentId",
          "type": "bytes32"
        },
        {
          "internalType": "address",
          "name": "tokenAddress",
          "type": "address"
        },
        {
          "internalType": "uint256",
          "name": "amount",
          "type": "uint256"
        },
        {
          "internalType": "address",
          "name": "recipientAddress",
          "type": "address"
        },
        {
          "internalType": "bytes32",
          "name": "merchantId",
          "type": "bytes32"
        },
        {
          "internalType": "uint16",
          "name": "feeBps",
          "type": "uint16"
        },
        {
          "internalType": "bytes",
          "name": "serverSignature",
          "type": "bytes"
        }
      ],
      "name": "pay",
      "outputs": [],
      "stateMutability": "nonpayable",
      "type": "function"
    },
    {
      "inputs": [
        {
          "internalType": "bytes32",
          "name": "",
          "type": "bytes32"
        }
      ],
      "name": "processedPayments",
      "outputs": [
        {
          "internalType": "bool",
          "name": "",
          "type": "bool"
        }
      ],
      "stateMutability": "view",
      "type": "function"
    },
    {
      "inputs": [],
      "name": "proxiableUUID",
      "outputs": [
        {
          "internalType": "bytes32",
          "name": "",
          "type": "bytes32"
        }
      ],
      "stateMutability": "view",
      "type": "function"
    },
    {
      "inputs": [],
      "name": "renounceOwnership",
      "outputs": [],
      "stateMutability": "nonpayable",
      "type": "function"
    },
    {
      "inputs": [
        {
          "internalType": "bool",
          "name": "enforce",
          "type": "bool"
        }
      ],
      "name": "setEnforceTokenWhitelist",
      "outputs": [],
      "stateMutability": "nonpayable",
      "type": "function"
    },
    {
      "inputs": [
        {
          "internalType": "address",
          "name": "newSigner",
          "type": "address"
        }
      ],
      "name": "setSigner",
      "outputs": [],
      "stateMutability": "nonpayable",
      "type": "function"
    },
    {
      "inputs": [
        {
          "internalType": "address",
          "name": "tokenAddress",
          "type": "address"
        },
        {
          "internalType": "bool",
          "name": "supported",
          "type": "bool"
        }
      ],
      "name": "setSupportedToken",
      "outputs": [],
      "stateMutability": "nonpayable",
      "type": "function"
    },
    {
      "inputs": [
        {
          "internalType": "address",
          "name": "newTreasuryAddress",
          "type": "address"
        }
      ],
      "name": "setTreasury",
      "outputs": [],
      "stateMutability": "nonpayable",
      "type": "function"
    },
    {
      "inputs": [],
      "name": "signerAddress",
      "outputs": [
        {
          "internalType": "address",
          "name": "",
          "type": "address"
        }
      ],
      "stateMutability": "view",
      "type": "function"
    },
    {
      "inputs": [
        {
          "internalType": "address",
          "name": "",
          "type": "address"
        }
      ],
      "name": "supportedTokens",
      "outputs": [
        {
          "internalType": "bool",
          "name": "",
          "type": "bool"
        }
      ],
      "stateMutability": "view",
      "type": "function"
    },
    {
      "inputs": [
        {
          "internalType": "address",
          "name": "newOwner",
          "type": "address"
        }
      ],
      "name": "transferOwnership",
      "outputs": [],
      "stateMutability": "nonpayable",
      "type": "function"
    },
    {
      "inputs": [],
      "name": "treasuryAddress",
      "outputs": [
        {
          "internalType": "address",
          "name": "",
          "type": "address"
        }
      ],
      "stateMutability": "view",
      "type": "function"
    },
    {
      "inputs": [],
      "name": "trustedForwarder",
      "outputs": [
        {
          "internalType": "address",
          "name": "",
          "type": "address"
        }
      ],
      "stateMutability": "view",
      "type": "function"
    },
    {
      "inputs": [
        {
          "internalType": "address",
          "name": "newImplementation",
          "type": "address"
        },
        {
          "internalType": "bytes",
          "name": "data",
          "type": "bytes"
        }
      ],
      "name": "upgradeToAndCall",
      "outputs": [],
      "stateMutability": "payable",
      "type": "function"
    }
  ],
  "bytecode": "0x60c034610121576001600160401b0390601f620020fa38819003918201601f1916830191848311848410176101265780849260209460405283398101031261012157516001600160a01b0381168103610121573060805260a0527ff0c57e16840df040f15088dc2f81fe391c3923bec73e23a9662efc9c229c6a009081549060ff8260401c1661010f5780808316036100ca575b604051611fbd90816200013d8239608051818181611254015261130d015260a0518181816102ab0152818161120d0152611b080152f35b6001600160401b031990911681179091556040519081527fc7f505b2f371ae2175ee4913f4499e1f2633a7b5936321eed1cdaeb6115181d290602090a1388080610093565b60405163f92ee8a960e01b8152600490fd5b600080fd5b634e487b7160e01b600052604160045260246000fdfe608080604052600436101561001357600080fd5b60003560e01c90816304ffe41814611560575080631e049b66146115255780632d07a7f4146114ec5780634a0ea4d71461013d5780634f1ef286146112be57806352d1902d14611241578063572b6c05146111ed5780635b7633d0146111c457806368c4ac26146111855780636c19e7831461115c578063715018a6146110f25780637da0a8771461029557806384b0196e14610f965780638da5cb5b14610f6057806392cd210614610e045780639ba86c17146108ab578063ad3cb1cc14610861578063c0c53b8b14610307578063c5f956af146102da578063ce1b815f14610295578063d55be8c614610278578063e7986466146101ea578063ed24911d146101c7578063f0f442601461019e578063f2fde38b146101735763f3f247eb1461013d57600080fd5b3461016e57602036600319011261016e576004356000526000602052602060ff604060002054166040519015158152f35b600080fd5b3461016e57602036600319011261016e5761019c61018f611580565b6101976117a5565b611731565b005b3461016e57602036600319011261016e5761019c6101ba611580565b6101c26117a5565b611a42565b3461016e57600036600319011261016e5760206101e2611c0f565b604051908152f35b3461016e57604036600319011261016e57610203611580565b6024358015159182820361016e576102519061021d6117a5565b6001600160a01b0316916102328315156116e4565b82600052600160205260406000209060ff801983541691151516179055565b7f4e64f955f4c1a97a6779d936a2fe8f59e1674f3e1a4c883736b9131969860a89600080a3005b3461016e57600036600319011261016e5760206040516127108152f35b3461016e57600036600319011261016e576040517f00000000000000000000000000000000000000000000000000000000000000006001600160a01b03168152602090f35b3461016e57600036600319011261016e5760025460405160089190911c6001600160a01b03168152602090f35b3461016e57606036600319011261016e57610320611580565b610328611596565b6044356001600160a01b038116900361016e57600080516020611f6883398151915254916001600160401b03831680159081610851575b6001149081610847575b15908161083e575b5061082c576103bd9060016001600160401b0319851617600080516020611f688339815191525560ff8460401c16156107ff575b6103ad611be0565b6103b5611be0565b610197611be0565b6103c5611be0565b6103cd611be0565b6001600080516020611f4883398151915255604051916103ec836115ac565b600d83526c4d53515061794761746577617960981b602084015260405191610413836115ac565b60018352603160f81b6020840152610429611be0565b610431611be0565b83516001600160401b0381116106d957610459600080516020611ee883398151915254611881565b601f8111610789575b506020601f82116001146106fa5781929394956000926106ef575b50508160011b916000199060031b1c191617600080516020611ee8833981519152555b82516001600160401b0381116106d9577fa16a46d94261c7517cc8ff89f61c0ce93598e3c849801011dee649a6a557d103906104dc8254611881565b601f8111610675575b506020601f82116001146105eb57908061057194939260ff976000926105e0575b50508160011b916000199060031b1c19161790555b60007fa16a46d94261c7517cc8ff89f61c0ce93598e3c849801011dee649a6a557d1005560007fa16a46d94261c7517cc8ff89f61c0ce93598e3c849801011dee649a6a557d10155831960025416600255611a42565b61057c6044356117f3565b60401c161561058757005b68ff000000000000000019600080516020611f688339815191525416600080516020611f68833981519152557fc7f505b2f371ae2175ee4913f4499e1f2633a7b5936321eed1cdaeb6115181d2602060405160018152a1005b015190508780610506565b601f19821695836000527f5f9ce34815f8e11431c7bb75a8e6886a91478f7ffc1dbb0a98dc240fddd76b759660005b81811061065d575096600192849261057197969560ff9a10610644575b505050811b01905561051b565b015160001960f88460031b161c19169055878080610637565b8383015189556001909801976020938401930161061a565b826000527f5f9ce34815f8e11431c7bb75a8e6886a91478f7ffc1dbb0a98dc240fddd76b75601f830160051c810191602084106106cf575b601f0160051c01905b8181106106c357506104e5565b600081556001016106b6565b90915081906106ad565b634e487b7160e01b600052604160045260246000fd5b01519050858061047d565b600080516020611ee8833981519152600052600080516020611f288339815191529060005b601f1984168110610771575060019394959683601f19811610610758575b505050811b01600080516020611ee8833981519152556104a0565b015160001960f88460031b161c1916905585808061073d565b9091602060018192858b01518155019301910161071f565b600080516020611ee8833981519152600052601f820160051c600080516020611f2883398151915201602083106107ea575b601f820160051c600080516020611f288339815191520181106107de5750610462565b600081556001016107bb565b50600080516020611f288339815191526107bb565b68ffffffffffffffffff1984166801000000000000000117600080516020611f68833981519152556103a5565b60405163f92ee8a960e01b8152600490fd5b90501584610371565b303b159150610369565b604085901c60ff1615915061035f565b3461016e57600036600319011261016e576108a7604051610881816115ac565b60058152640352e302e360dc1b602082015260405191829160208352602083019061163a565b0390f35b3461016e5760e036600319011261016e576108c4611596565b6064356001600160a01b038116900361016e5760a43561ffff8116810361016e576001600160401b0360c4351161016e5736602360c43501121561016e576001600160401b0360c435600401351161016e5736602460c4356004013560c43501011161016e576002600080516020611f488339815191525414610df2576002600080516020611f488339815191525561095b611add565b600254909190600881901c6001600160a01b031615610db6576003546001600160a01b03168015610d7c57600435600052600060205260ff60406000205416610d3f5760443515610d01576109ba6001600160a01b03861615156116e4565b6064356001600160a01b031615610cc45761271061ffff841611610c8c576040517f72d781e0942cb269e920d3563ab7d2adea5c28bad1c9364c70dcb529638cff656020820152600435604082015260018060a01b0386166060820152604435608082015260018060a01b036064351660a082015260843560c082015261ffff841660e082015260e08152806101008101106001600160401b03610100830111176106d957610ab3604282610100610abc940160405260208151910120610a7f611c0f565b906040519161190160f01b83526002830152602282015220610aad3660c43560040135602460c43501611603565b90611d96565b90929192611dd2565b6001600160a01b031603610c4f5760ff16610bea575b61ffff8116604435029061ffff6044358304911603610bd457612710900480604435036044358111610bd457610b369060043560005260006020526040600020600160ff1982541617905582610bae575b606435846001600160a01b038716611b36565b604080516001600160a01b0360643581168252948516602082015260443591810191909152606081019190915242608082015291169060843590600435907f6888e6ff9d4b95724cdc09df022158fed4ab42ee444dc4af1c561b8436bef1479060a090a46001600080516020611f4883398151915255005b600254610bcf90849060081c6001600160a01b039081169087908916611b36565b610b23565b634e487b7160e01b600052601160045260246000fd5b6001600160a01b03831660009081526001602052604090205460ff16610ad25760405162461bcd60e51b815260206004820152601760248201527f50473a20746f6b656e206e6f7420737570706f727465640000000000000000006044820152606490fd5b60405162461bcd60e51b815260206004820152601560248201527450473a20696e76616c6964207369676e617475726560581b6044820152606490fd5b60405162461bcd60e51b815260206004820152601060248201526f0a08e7440cccaca40e8dede40d0d2ced60831b6044820152606490fd5b60405162461bcd60e51b81526020600482015260156024820152741411ce881a5b9d985b1a59081c9958da5c1a595b9d605a1b6044820152606490fd5b60405162461bcd60e51b8152602060048201526016602482015275050473a20616d6f756e74206d757374206265203e20360541b6044820152606490fd5b60405162461bcd60e51b81526020600482015260156024820152741411ce88185b1c9958591e481c1c9bd8d95cdcd959605a1b6044820152606490fd5b60405162461bcd60e51b81526020600482015260126024820152711411ce881cda59db995c881b9bdd081cd95d60721b6044820152606490fd5b60405162461bcd60e51b81526020600482015260146024820152731411ce881d1c99585cdd5c9e481b9bdd081cd95d60621b6044820152606490fd5b604051633ee5aeb560e01b8152600490fd5b3461016e57604036600319011261016e576001600160401b0360043581811161016e57610e3590369060040161167a565b909160243590811161016e57610e4f90369060040161167a565b9190610e596117a5565b828203610f255760005b828110610e6c57005b6001906001600160a01b03610e9681610e8e610e8985898c6116aa565b6116d0565b1615156116e4565b610ed9610eac610ea78489886116aa565b611724565b82610ebb610e89868a8d6116aa565b166000528460205260406000209060ff801983541691151516179055565b610ee7610e8983878a6116aa565b90610ef6610ea78489886116aa565b151591167f4e64f955f4c1a97a6779d936a2fe8f59e1674f3e1a4c883736b9131969860a89600080a301610e63565b60405162461bcd60e51b81526020600482015260136024820152720a08e7440d8cadccee8d040dad2e6dac2e8c6d606b1b6044820152606490fd5b3461016e57600036600319011261016e57600080516020611f08833981519152546040516001600160a01b039091168152602090f35b3461016e57600036600319011261016e577fa16a46d94261c7517cc8ff89f61c0ce93598e3c849801011dee649a6a557d1005415806110c9575b1561108c57610fdd6118bb565b610fe5611981565b6040516020808201928284106001600160401b038511176106d95791602061103f8594611031979660405260008452604051978897600f60f81b895260e0858a015260e089019061163a565b90878203604089015261163a565b91466060870152306080870152600060a087015285830360c0870152519182815201929160005b82811061107557505050500390f35b835185528695509381019392810192600101611066565b60405162461bcd60e51b81526020600482015260156024820152741152540dcc4c8e88155b9a5b9a5d1a585b1a5e9959605a1b6044820152606490fd5b507fa16a46d94261c7517cc8ff89f61c0ce93598e3c849801011dee649a6a557d1015415610fd0565b3461016e57600036600319011261016e5761110b6117a5565b600080516020611f0883398151915280546001600160a01b031981169091556000906001600160a01b03167f8be0079c531659141344cd1fd0a4f28419497f9722a3daafe3b4186f6b6457e08280a3005b3461016e57602036600319011261016e5761019c611178611580565b6111806117a5565b6117f3565b3461016e57602036600319011261016e576001600160a01b036111a6611580565b166000526001602052602060ff604060002054166040519015158152f35b3461016e57600036600319011261016e576003546040516001600160a01b039091168152602090f35b3461016e57602036600319011261016e576020611208611580565b6040517f00000000000000000000000000000000000000000000000000000000000000006001600160a01b039081169216919091148152f35b3461016e57600036600319011261016e577f00000000000000000000000000000000000000000000000000000000000000006001600160a01b031630036112ac5760206040517f360894a13ba1a3210667c828492db98dca3e2076cc3735a920a3ca505d382bbc8152f35b60405163703e46dd60e11b8152600490fd5b604036600319011261016e576112d2611580565b6024356001600160401b03811161016e573660238201121561016e57611302903690602481600401359101611603565b906001600160a01b037f000000000000000000000000000000000000000000000000000000000000000081163081149081156114be575b506112ac576113466117a5565b6040516352d1902d60e01b8152908216916020918281600481875afa6000918161148f575b5061138957604051634c9c8ce360e01b815260048101859052602490fd5b9284937f360894a13ba1a3210667c828492db98dca3e2076cc3735a920a3ca505d382bbc908181036114775750823b1561145e5780546001600160a01b03191682179055604051907fbc7cd75a20ee27fd9adebab32041f755214dbc6bffa90cc0225b39da2e5c2d3b600080a28351156114445750600080848461019c96519101845af4903d1561143b573d61141e816115e8565b9061142c60405192836115c7565b8152600081943d92013e611d33565b60609250611d33565b925050503461144f57005b63b398979f60e01b8152600490fd5b604051634c9c8ce360e01b815260048101839052602490fd5b60249060405190632a87526960e21b82526004820152fd5b9091508381813d83116114b7575b6114a781836115c7565b8101031261016e5751908661136b565b503d61149d565b9050817f360894a13ba1a3210667c828492db98dca3e2076cc3735a920a3ca505d382bbc5416141584611339565b3461016e57602036600319011261016e5760043580151580910361016e576115126117a5565b60ff801960025416911617600255600080f35b3461016e57600036600319011261016e5760206040517f72d781e0942cb269e920d3563ab7d2adea5c28bad1c9364c70dcb529638cff658152f35b3461016e57600036600319011261016e5760209060ff6002541615158152f35b600435906001600160a01b038216820361016e57565b602435906001600160a01b038216820361016e57565b604081019081106001600160401b038211176106d957604052565b90601f801991011681019081106001600160401b038211176106d957604052565b6001600160401b0381116106d957601f01601f191660200190565b92919261160f826115e8565b9161161d60405193846115c7565b82948184528183011161016e578281602093846000960137010152565b919082519283825260005b848110611666575050826000602080949584010152601f8019910116010190565b602081830181015184830182015201611645565b9181601f8401121561016e578235916001600160401b03831161016e576020808501948460051b01011161016e57565b91908110156116ba5760051b0190565b634e487b7160e01b600052603260045260246000fd5b356001600160a01b038116810361016e5790565b156116eb57565b60405162461bcd60e51b815260206004820152601160248201527028239d1034b73b30b634b2103a37b5b2b760791b6044820152606490fd5b35801515810361016e5790565b6001600160a01b0390811690811561178c57600080516020611f0883398151915280546001600160a01b031981168417909155167f8be0079c531659141344cd1fd0a4f28419497f9722a3daafe3b4186f6b6457e0600080a3565b604051631e4fbdf760e01b815260006004820152602490fd5b600080516020611f08833981519152546001600160a01b03908116816117c9611add565b16036117d25750565b6024906117dd611add565b60405163118cdaa760e01b815291166004820152fd5b6001600160a01b0390811690811561184757600354826bffffffffffffffffffffffff60a01b821617600355167feeb293e1f8f3a9db91ade748726387ed1352ca78f5430c5f06fe3d1e1ad50579600080a3565b60405162461bcd60e51b815260206004820152601260248201527128239d1034b73b30b634b21039b4b3b732b960711b6044820152606490fd5b90600182811c921680156118b1575b602083101461189b57565b634e487b7160e01b600052602260045260246000fd5b91607f1691611890565b60405190600082600080516020611ee8833981519152918254926118de84611881565b8084529360209160019182811690811561195b575060011461190c575b50505061190a925003836115c7565b565b6000908152600080516020611f288339815191529590935091905b828410611943575061190a9450505081016020013880806118fb565b85548885018301529485019487945092810192611927565b925050506020925061190a94915060ff191682840152151560051b8201013880806118fb565b604051906000827fa16a46d94261c7517cc8ff89f61c0ce93598e3c849801011dee649a6a557d103918254926119b684611881565b8084529360209160019182811690811561195b57506001146119e15750505061190a925003836115c7565b60009081527f5f9ce34815f8e11431c7bb75a8e6886a91478f7ffc1dbb0a98dc240fddd76b759590935091905b828410611a2a575061190a9450505081016020013880806118fb565b85548885018301529485019487945092810192611a0e565b6001600160a01b03818116918215611aa15760028054610100600160a81b03198116600893841b610100600160a81b031617909155901c167f8c3aa5f43a388513435861bf27dfad7829cd248696fed367c62d441f62954496600080a3565b60405162461bcd60e51b815260206004820152601460248201527350473a20696e76616c696420747265617375727960601b6044820152606490fd5b601436101580611b04575b15611b0057601319360136811161016e573560601c90565b3390565b50337f00000000000000000000000000000000000000000000000000000000000000006001600160a01b031614611ae8565b6040516323b872dd60e01b602082019081526001600160a01b039384166024830152938316604482015260648082019590955293845292909160a08201906001600160401b038211838310176106d957602092600092604052519082865af115611bd4576000513d611bcb57508082163b155b611bb1575050565b604051635274afe760e01b81529116600482015260249150fd5b60011415611ba9565b6040513d6000823e3d90fd5b60ff600080516020611f688339815191525460401c1615611bfd57565b604051631afcd79f60e31b8152600490fd5b611c17611c84565b611c1f611cee565b6040519060208201927f8b73c3c69bb8fe3d512ecc4cf759cc79239f7b179b0ffacaa9a75d522b39400f8452604083015260608201524660808201523060a082015260a0815260c081018181106001600160401b038211176106d95760405251902090565b611c8c6118bb565b8051908115611c9c576020012090565b50507fa16a46d94261c7517cc8ff89f61c0ce93598e3c849801011dee649a6a557d100548015611cc95790565b507fc5d2460186f7233c927e7db2dcc703c0e500b653ca82273b7bfad8045d85a47090565b611cf6611981565b8051908115611d06576020012090565b50507fa16a46d94261c7517cc8ff89f61c0ce93598e3c849801011dee649a6a557d101548015611cc95790565b90611d5a5750805115611d4857602081519101fd5b60405163d6bda27560e01b8152600490fd5b81511580611d8d575b611d6b575090565b604051639996b31560e01b81526001600160a01b039091166004820152602490fd5b50803b15611d63565b8151919060418303611dc757611dc092506020820151906060604084015193015160001a90611e57565b9192909190565b505060009160029190565b6004811015611e415780611de4575050565b60018103611dfe5760405163f645eedf60e01b8152600490fd5b60028103611e1f5760405163fce698f760e01b815260048101839052602490fd5b600314611e295750565b602490604051906335e2f38360e21b82526004820152fd5b634e487b7160e01b600052602160045260246000fd5b91907f7fffffffffffffffffffffffffffffff5d576e7357a4501ddfe92f46681b20a08411611edb57926020929160ff608095604051948552168484015260408301526060820152600092839182805260015afa15611ecf5780516001600160a01b03811615611ec657918190565b50809160019190565b604051903d90823e3d90fd5b5050506000916003919056fea16a46d94261c7517cc8ff89f61c0ce93598e3c849801011dee649a6a557d1029016d09d72d40fdae2fd8ceac6b6234c7706214fd39c1cd1e609a0528c19930042ad5d3e1f2e6e70edcf6d991b8a3023d3fca8047a131592f9edb9fd9b89d57d9b779b17422d0df92223018b32b4d1fa46e071723d6817e2486d003becc55f00f0c57e16840df040f15088dc2f81fe391c3923bec73e23a9662efc9c229c6a00a26469706673582212208835e3d065dd890acb5201070a6e00ce09659d94ec3c7af675693f6beff8b6c064736f6c63430008180033",
  "linkReferences": {},
  "deployedLinkReferences": {}
}